:020000040800F2
:1000000038870020512D0008F5160008F716000863
:10001000FB160008FF160008031700080000000088
:1000200000000000000000000000000007170008AA
:1000300009170008000000000B1700080D17000842
:100040006B2D00086B2D00086B2D00086B2D000830
:100050006B2D00086B2D0008511900086B2D00084E
:100060006B2D00086B2D00086B2D00086B2D000810
:100070006B2D00086B2D00086B2D00086B2D000800
:100080006B2D00086B2D00086B2D00086B2D0008F0
:100090006B2D00086B2D00086B2D00086B2D0008E0
:1000A0006B2D00086B2D00086B2D00086B2D0008D0
:1000B0006B2D00086B2D0008BD1500086B2D000886
:1000C0006B2D00086B2D00086B2D00086B2D0008B0
:1000D0006B2D0008C72C00086B2D00086B2D000845
:1000E0006B2D00086B2D00086B2D00086B2D000890
:1000F0006B2D00086B2D00086B2D00086B2D000880
:100100006B2D00086B2D00086B2D00086B2D00086F
:100110006B2D00086B2D00086B2D00086B2D00085F
:100120006B2D00086B2D00086B2D00086B2D00084F
:1001300000F002F800F05AF80AA090E8000C82449F
:100140008344AAF10107DA4501D100F04FF8AFF27C
:10015000090EBAE80F0013F0010F18BFFB1A43F0A5
:100160000103184780630000A06300000A444FF0B9
:10017000000C10F8013B13F0070408BF10F8014B06
:100180001D1108BF10F8015B641E05D010F8016B4B
:10019000641E01F8016BF9D113F0080F1EBF10F8AF
:1001A000014BAD1C0C1B09D16D1E58BF01F801CBD2
:1001B000FAD505E014F8016B01F8016B6D1EF9D555
:1001C0009142D6D37047000000230024002500266A
:1001D000103A28BF78C1FBD8520728BF30C148BFAA
:1001E0000B6070471FB51FBD10B510BD04F04FFD6B
:1001F0001146FFF7F7FF01F078F904F06DFD03B445
:10020000FFF7F2FF03BC02F003FD00002DE9F04F01
:100210008BB006468A46934699460024CBE0651C7F
:10022000089404EB840006EB401000EBC40103C902
:1002300021F00041CDE906011CE005EB850006EB4D
:10024000401000EBC40103C921F00041CDE90401D5
:10025000DDE9062305F008F90BD2089505EB8500CA
:1002600006EB401000EBC40103C921F00041CDE9C9
:1002700006016D1C4D45E0DB0898844234DA0AEB38
:10028000C400D0E9007808980AEBC00103C90AEB62
:10029000C40203C208980AEBC000C0E900782546F2
:1002A00020E004EB840006EB401000EBC500D0E931
:1002B0000078089800EB800006EB401000EBC501C9
:1002C00003C904EB840206EB421202EBC50203C22F
:1002D000089800EB800006EB401000EBC500C0E979
:1002E00000786D1C4D45DCDB651C61E005EB85008D
:1002F00006EB401000EBC40103C981F00041CDE9D9
:10030000040104EB840006EB401000EBC40003C8BA
:1003100002460B46CDE90201DDE9040104F0CCFD03
:10032000074688460AEBC40003C83A464346CDE96F
:10033000020104F09BFFCDE904010AEBC50103C9EA
:10034000CDE90201DDE9042304F002FD0AEBC50258
:1003500003C2099428E004EB840006EB40110998DD
:1003600001EBC00003C83A464346CDE9020104F060
:100370007DFFCDE9040105EB850006EB40110998EE
:1003800001EBC00103C9CDE90201DDE9042304F05A
:10039000DFFC05EB850206EB4213099A03EBC20270
:1003A00003C20998401C099009984845D3DB6D1C8D
:1003B0004D459BDB641CA9F10100A0423FF72FAF24
:1003C00000EB800006EB4011A9F1010001EBC00138
:1003D00003C9CDE90401A9F101000AEBC00003C87B
:1003E000CDE90201DDE9042304F066FDA9F1010273
:1003F0000BEBC20203C2A9F1020440E00AEBC40104
:1004000003C90BEBC40203C2651C20E004EB8400AB
:1004100006EB401000EBC50103C9CDE900010BEB71
:10042000C50003C8CDE90201DDE9002304F01EFF89
:10043000CDE904010BEBC40003C8CDE90201DDE9FD
:10044000042305F053F80BEBC40203C26D1C4D45A9
:10045000DCDB04EB840006EB401000EBC40003C8B7
:10046000CDE904010BEBC40003C8CDE90201DDE9CD
:10047000042304F021FD0BEBC40203C2641E002C14
:10048000BCDA0BB0BDE8F08F2DE9FF5F81468A46EC
:1004900015469B46002428E0002105EBC4021160AC
:1004A000516000261DE004EB840009EB401000EBD6
:1004B000C600D0E900730AEBC60003C83A46CDE98E
:1004C000000104F0D3FECDE9020105EBC401D1E93E
:1004D00000733A46039904F03BFC05EBC40203C2E7
:1004E000761C0E988642DEDB641C5C45D4DBBDE8DE
:1004F000FF9F2DE9FF5F8046894616469A460024F5
:1005000040E000253AE0002104EB840206EB4212B1
:1005100002EBC5021160516000272BE007EB87005A
:1005200009EB401000EBC50003C8CDE9000104EB66
:10053000840008EB401000EBC701D1E900B1584638
:10054000DDE9002304F092FECDE9020104EB840012
:1005500006EB401000EBC500D0E900B35A46029804
:1005600004F0F6FB04EB840206EB421202EBC50238
:1005700003C27F1C0E988742D0DB6D1C0F9885420A
:10058000C1DB641C5445BCDBBDE8FF9FF0B50446ED
:100590000D46002015E0002110E000EB800604EB82
:1005A000461606EBC106D6E9007601EB810C05EB99
:1005B0004C1C0CEBC00CCCE90076491C9942ECDBDE
:1005C000401C9042E7DBF0BD2DE9FC5F07460E467C
:1005D0009046994600242EE0002529E00021FE489F
:1005E00004EB840206EB421202EBC502C2E90010E2
:1005F0004FF0000A19E004EB840006EB401000EB1A
:10060000C50003C8CDE9000107EBC400D0E900B381
:100610005A46009804F02AFE04EB840206EB4212CC
:1006200002EBC50203C20AF1010AAA45E3DB6D1C15
:100630004D45D3DB641C4445CEDBBDE8FC9F7CB557
:10064000062514242B462246E449E548FFF7BCFF63
:100650002B462246E349E148FFF798FF2B46E24A42
:10066000DE49E048CDE90045FFF743FF2B46DF4A6E
:10067000DF49DC480094FFF707FF2B46DD4ADB49E2
:10068000D948FFF7C3FD7CBD2DE9F04F8BB006467E
:100690008A46934699460024CBE0651C089404EBF7
:1006A000440006EB801000EBC40103C921F00041B7
:1006B000CDE906011CE005EB450006EB801000EBE0
:1006C000C40103C921F00041CDE90401DDE906239D
:1006D00004F0CAFE0BD2089505EB450006EB80102E
:1006E00000EBC40103C921F00041CDE906016D1CF6
:1006F0004D45E0DB0898844234DA0AEBC400D0E9C7
:10070000007808980AEBC00103C90AEBC40203C2CF
:1007100008980AEBC000C0E90078254620E004EB09
:10072000440006EB801000EBC500D0E90078089883
:1007300000EB400006EB801000EBC50103C904EBA1
:10074000440206EB821202EBC50203C2089800EBDA
:10075000400006EB801000EBC500C0E900786D1C7E
:100760004D45DCDB651C61E005EB450006EB8010C8
:1007700000EBC40103C981F00041CDE9040104EBA1
:10078000440006EB801000EBC40003C802460B4691
:10079000CDE90201DDE9040104F08EFB074688463D
:1007A0000AEBC40003C83A464346CDE9020104F00F
:1007B0005DFDCDE904010AEBC50103C9CDE90201E4
:1007C000DDE9042304F0C4FA0AEBC50203C209946C
:1007D00028E004EB440006EB8011099801EBC0000F
:1007E00003C83A464346CDE9020104F03FFDCDE996
:1007F000040105EB450006EB8011099801EBC001EF
:1008000003C9CDE90201DDE9042304F0A1FA05EBF7
:10081000450206EB8213099A03EBC20203C2099850
:10082000401C099009984845D3DB6D1C4D459BDB66
:10083000641CA9F10100A0423FF72FAF00EB40007C
:1008400006EB8011A9F1010001EBC00103C9CDE95C
:100850000401A9F101000AEBC00003C8CDE90201BF
:10086000DDE9042304F028FBA9F101020BEBC2022D
:1008700003C2A9F1020440E00AEBC40103C90BEB77
:10088000C40203C2651C20E004EB440006EB8010A8
:1008900000EBC50103C9CDE900010BEBC50003C89E
:1008A000CDE90201DDE9002304F0E0FCCDE904011B
:1008B0000BEBC40003C8CDE90201DDE9042304F019
:1008C00015FE0BEBC40203C26D1C4D45DCDB04EBD3
:1008D000440006EB801000EBC40003C8CDE904011E
:1008E0000BEBC40003C8CDE90201DDE9042304F0E9
:1008F000E3FA0BEBC40203C2641E002CBCDA0BB09B
:10090000BDE8F08F2DE9FF5F81468A4615469B467C
:10091000002428E0002105EBC4021160516000268C
:100920001DE004EB440009EB801000EBC600D0E9A9
:1009300000730AEBC60003C83A46CDE9000104F093
:1009400095FCCDE9020105EBC401D1E900733A46FB
:10095000039904F0FDF905EBC40203C2761C0E985E
:100960008642DEDB641C5C45D4DBBDE8FF9F2DE9DD
:10097000FF5F8046894616469A46002452E00025CD
:100980004CE0002104EB440206EB821202EBC502AC
:100990001160516000273DE007EB470009EB801034
:1009A00000EBC50003C8CDE9000104EB440008EBEF
:1009B000801000EBC701D1E900B15846DDE9002302
:1009C00004F054FCCDE9020104EB440006EB801076
:1009D00000EBC50010E000000000F03F781200209E
:1009E00028100020F81E0020782B0020F837002067
:1009F0001000002098380020D0E900B35A46029831
:100A000004F0A6F904EB440206EB821202EBC502E5
:100A100003C27F1C0E988742BEDB6D1C0F98854277
:100A2000AFDB641C5445AADBBDE8FF9FF0B504466C
:100A30000D46002015E0002110E000EB400604EB1D
:100A4000861606EBC106D6E9007601EB410C05EBF4
:100A50008C1C0CEBC00CCCE90076491C9942ECDBF9
:100A6000401C9042E7DBF0BD2DE9FC5F07460E46D7
:100A70009046994600242EE0002529E00021F74801
:100A800004EB440206EB821202EBC502C2E900103D
:100A90004FF0000A19E004EB440006EB801000EB75
:100AA000C50003C8CDE9000107EBC400D0E900B3DD
:100AB0005A46009804F0DAFB04EB440206EB82127B
:100AC00002EBC50203C20AF1010AAA45E3DB6D1C71
:100AD0004D45D3DB641C4445CEDBBDE8FC9F7CB5B3
:100AE000072518242B462246DD49DE48FFF7BCFFC8
:100AF0002B462246DC49DA48FFF798FF2B46DB4AB3
:100B0000D749D948CDE90045FFF731FF2B46D84AF0
:100B1000D849D5480094FFF7F5FE2B46D64AD4496C
:100B2000D248FFF7B1FD7CBD70B50025002408E078
:100B3000D24951F82400294604F0EEFD0546601C18
:100B4000C4B21E2CF4DBCE49284604F053FE70BD1F
:100B500070B500251DE040F2F310441B16E0621E44
:100B6000C84B53F822101A4652F8240004F038FFFC
:100B70000BD2C44850F82460601EC24951F82000CE
:100B800041F82400601E41F82060641E002CE6DC61
:100B90006D1CB5F5F97FDEDD70BD10B50024FFF7E3
:100BA000D7FF00BF09E0B74904F1EB0051F820007E
:100BB000B24941F82400601CC4B21E2CF3DB10BD06
:100BC0002DE9F843002601F006F80024CAE00D22C2
:100BD0000021142001F0FCF807220021242001F05C
:100BE000F7F808220021342001F0F2F80922002150
:100BF000442001F0EDF817220321022001F0E8F86B
:100C00000B220321122001F0E3F80C220321222001
:100C100001F0DEF803220621022001F0D9F80422B7
:100C20000621122001F0D4F805220621222001F02D
:100C3000CFF8102394A20621322001F0A6F8102349
:100C400091A20321322001F0A0F8904800EBC400EB
:100C5000D0E90021104604F087FA0746102003234C
:100C60003A4619460090422001F04BF80122032138
:100C7000622001F0ADF86AE000250BE0002001F0F1
:100C8000A3F983490860084600687E4941F82500B9
:100C9000681C85B2B5F5FA7FF0DBFFF77EFFFFF742
:100CA00043FF7B4908607B497948006804F0CCFE2B
:100CB000804604F061FE0746102006233A46194696
:100CC0000090462001F01DF84FF48051724802F068
:100CD00052F900283BD1052001F06DFF4FF48051FF
:100CE0006D4802F048F930BB01206C4908600126CC
:100CF000674801684FF07E5004F07CFD80466849EB
:100D000004F0A2FE074604F0DBFC664A02EBC402D4
:100D100003C200BF4FF480515F4802F02CF9002855
:100D2000F8D0102360A200216F2001F02EF84FF4BC
:100D3000967001F040FF1E2001F03DFF10235BA2E2
:100D400000216F2001F021F8002054490860002E96
:100D500092D00026112C03D14D48006854490860F8
:100D6000601CC4B2142CFFF632AF4E49D1E91C010D
:100D70003C4A03C24B48D0E91E10083AC2E90210AF
:100D800048488030D0E90010C2E904104548883056
:100D9000D0E90010C2E9061042489030D0E90010B6
:100DA000C2E908103F49983103C9C2E90A01062483
:100DB000F3E00D220021142001F00AF8072200219F
:100DC000242001F005F808220021342001F000F869
:100DD00009220021442000F0FBFF172203210220FA
:100DE00000F0F6FF0B220321122000F0F1FF0C228D
:100DF0000321222000F0ECFF03220621022000F054
:100E0000E7FF04220621122000F0E2FF052206215E
:100E1000222000F0DDFF10231BA20621322000F06B
:100E2000B4FF102318A20321322000F0AEFF1148B6
:100E300000EBC400D0E90021104604F095F9074604
:100E4000102003233A4619460090422000F059FF33
:100E500001220321622000F0BBFF99E00000F03F77
:100E600038390020C8100020384B0020385D0020A1
:100E7000386F0020B800002088110020B00F00203B
:100E80000000F041E00700203A00000010000020C0
:100E90000800002000007A44000C0140A08121429B
:100EA0000000C842281000204F4B00002020000006
:100EB000B000002000250BE0002001F085F8FE497D
:100EC000086008460068FD4941F82500681C85B2A5
:100ED000B5F5FA7FF0DBFFF760FEFFF725FEF64978
:100EE0000860F749F448006804F0AEFD804604F05D
:100EF00043FD0746102006233A4619460090462037
:100F000000F0FFFE4FF48051EE4802F034F8E8BBE9
:100F1000052001F050FE4FF48051EA4802F02BF812
:100F200038BB0120E84908600126E34801684FF01A
:100F30007E5004F05FFC8046E44904F085FD0746DE
:100F400004F0BEFBE24A02EBC40203C200BF4FF44E
:100F50008051DC4802F00FF80028F8D01023AFF2DF
:100F6000B80200216F2000F010FF4FF4967001F0DE
:100F700022FE1E2001F01FFE1023AFF2D00200213E
:100F80006F2000F002FF0020CF4900E000E0086081
:100F9000002E8FD00026601CC4B2182CFFF609AFBB
:100FA000FFF74DFBFFF79BFDC0226421C94801F00C
:100FB000C3FC0020C849086000F00DFEBDE8F883BE
:100FC0002DE9F35FAAB00A2001F0F5FD0020C34926
:100FD000DDE92A2303F070FF0022C14BCDE91E0199
:100FE00004F044F904460D46BE48006804F068FB6E
:100FF000CDE91E01DDE92A2304F0FCF87DD2BA48D0
:10100000D0E90A67D0E90889D0E906AB0146D1E901
:101010000401CDE92801B449D1E90201CDE9260155
:10102000B1480CC8CDE9242322462B46DDE9260130
:1010300004F01CF922462B46CDE91C01DDE928010C
:1010400004F014F922462B46CDE9140104F00EF900
:1010500022462B46CDE918015046594604F006F9C0
:1010600022462B46CDE90E0104F000F922462B461C
:10107000CDE9100104F0FAF822462B46CDE914011F
:101080004046494604F0F2F822462B46CDE90801D5
:1010900004F0ECF822462B46CDE90A0104F0E6F80C
:1010A00022462B46CDE90C0104F0E0F822462B46FF
:1010B000CDE910013046394604F0D8F822462B46D7
:1010C000CDE9060104F0D2F822462B46CDE908010D
:1010D00004F0CCF822462B46CDE90A0104F0C6F80C
:1010E00022462B46CDE90C0104F0C0F8CDE90E01F3
:1010F000DDE9102303F02CFE00E01AE0CDE9120137
:10110000DDE9142303F024FECDE91601DDE91823FF
:1011100003F01EFECDE91A01DDE91C2303F018FEE1
:10112000CDE91E01DDE9242303F012FECDE9200103
:10113000E2E06848D0E90C67D0E90A89D0E908AB59
:101140000146D1E90601CDE928016249D1E904014E
:10115000CDE926015F49D1E90201CDE924015D48CD
:101160000CC8CDE9222322462B46DDE9240104F0F8
:101170007DF822462B46CDE91C01DDE9260104F06D
:1011800075F822462B46CDE9140104F06FF822468B
:101190002B46CDE91801DDE9280104F067F8224665
:1011A0002B46CDE90E0104F061F822462B46CDE92D
:1011B000100104F05BF822462B46CDE9140150469D
:1011C000594604F053F822462B46CDE9080104F0B5
:1011D0004DF822462B46CDE90A0104F047F8224695
:1011E0002B46CDE90C0104F041F822462B46CDE90F
:1011F00010014046494604F039F822462B46CDE915
:10120000020104F033F822462B46CDE9040104F034
:101210002DF822462B46CDE9060104F027F8224698
:101220002B46CDE9080104F021F822462B46CDE9F2
:101230000C013046394604F019F822462B46CDE918
:10124000000104F013F822462B46CDE9020104F018
:101250000DF822462B46CDE9040104F007F822469A
:101260002B46CDE9060104F001F822462B46CDE9D4
:10127000080103F0FBFFCDE90A01DDE90C2303F0CF
:1012800067FDCDE90E01DDE9102303F061FDCDE935
:101290001201DDE9142303F05BFDCDE91601DDE960
:1012A000182303F055FDCDE91A01DDE91C2303F0F5
:1012B0004FFDCDE91E0119E008000020E0070020E5
:1012C00000007A44000C0140A08121420000C84285
:1012D000C810002088110020780100200000F03F95
:1012E00000005940B000002098380020DDE922239A
:1012F00003F02EFDCDE92001DDE920012CB0BDE891
:10130000F09F10B500221146192000F061FD012266
:101310000021292000F05CFD15220021392000F079
:1013200057FD16220021492000F052FD1222002113
:10133000592000F04DFD1023DAA20421022000F014
:1013400024FD0D220421322000F042FD0722042159
:10135000422000F03DFD08220421522000F038FD1B
:1013600009220421622000F033FD1023CFA20621C0
:10137000022000F00AFD0E220621322000F028FD96
:1013800002220621422000F023FD082206215220DD
:1013900000F01EFD09220621622000F019FD10BD9B
:1013A00070B5C44AD16B906B04F0B6F905464FF0A6
:1013B000804104F01FFA0446204670BDF8B50125AF
:1013C00000F009FC8DE000240BE0002000F0FCFDA3
:1013D000B949086008460068B84941F82400601C13
:1013E00084B2B4F5FA7FF0DBFFF7D7FBFFF7D8FF45
:1013F000B14908600846006804F062F90646FFF744
:10140000DFFDAF4A03C2AF49AB48006804F0E8FA19
:1014100022D80120AC4908604FF4FA6001F0CBFB00
:101420000020AA49C1F8A0010F220121022000F0EA
:10143000CFFC10220121104600F0CAFC102002232C
:10144000002203210090282000F05BFC01220321F0
:101450003C2000F0BDFC0CE000209B4908601322FA
:101460000121022000F0B4FC14220121102000F020
:10147000AFFC4FF48041964801F07DFDB0B90520E6
:1014800001F099FB4FF48041914801F074FD68B977
:1014900000BF4FF480418E4801F06DFD0028F8D068
:1014A000002500208B49086000F095FB4FF4805127
:1014B000874801F060FDA0B9052001F07CFB4FF4E6
:1014C0008051834801F057FD58B900BF4FF4805157
:1014D0007F4801F050FD0028F8D001217E4802F03D
:1014E0006DFF002D7FF46FAFF8BD01F027FB4FF4C7
:1014F000A06002F0D1F900F0D2FD00F0D5FC01F0BF
:1015000029F900F0FFFF01F019F847F22F5141F6D9
:101510001F4001F0CFF800216F4802F04FFF00F0AC
:101520005AFBC02264216D4801F06EF945E04FF48A
:101530008051674801F01FFD98B9052001F03BFB81
:101540004FF48051624801F016FD50B900BF4FF4CE
:1015500080515F4801F00FFD0028F8D001205D495F
:1015600008604FF480415A4801F005FD98B9052004
:1015700001F021FB4FF48041554801F0FCFC50B9CB
:1015800002E00220534908604FF48041504801F0C6
:10159000F2FC0028F5D04F48006850B1012802D075
:1015A000022809D102E0FFF70BFB05E0FFF706FF79
:1015B00002E0FFF7A6FE00BF00BFB8E72DE9F84F35
:1015C0000121454803F0C3F9002868D03C4903C90C
:1015D00003F0CAFD0446204603F0F5FD06463848F0
:1015E0000CC8304603F076FF814603F07FFB0546CA
:1015F0003B4A3C4B324903C903F038FE064603F030
:1016000075FB80463849404604F01EFA074604F050
:10161000B3F90646102002233246062100900A2024
:1016200000F06FFB102331A206213C2000F0ADFB3F
:10163000284604F045F8064600222D4B03F014FF1F
:101640000DD810200223621C03210090282000F0F6
:1016500058FB012203213C2000F0BAFB0CE01020D3
:101660000223224603210090282000F04AFB012299
:1016700003213C2000F0ACFB0120134908604FF42B
:10168000967001F098FA00201049C1F8A0010021DD
:10169000114802F093FE01210F4803F069F9BDE8FB
:1016A000F88F00004B6579313A0000004B657932C4
:1016B0003A000000B00F002008000020E0070020E2
:1016C000000000200000F041A08121420080214262
:1016D000000C014078010020000800408811002023
:1016E000C3F5285C8FC2B53F00007A44754D0000F9
:1016F0000000E03F704700BFFEE700BFFEE700BF0D
:10170000FEE700BFFEE77047704770477047000074
:101710000CB50020019000906C48006840F48030C7
:101720006A49086000BF6948006800F40030009012
:101730000198401C0190009818B90198B0F5A06F6D
:10174000F1D16248006800F4003010B1012000902F
:1017500001E0002000900098012843D15C48006817
:1017600040F010005A4908600846006820F0030065
:1017700008600846006840F002000860534840686E
:10178000524948600846406848600846406840F44E
:10179000806048600846406820F47C104860084635
:1017A000406840F4E81048600846006840F08070E7
:1017B000086000BF4548006800F000700028F9D0BC
:1017C0004248406820F003004049486008464068AD
:1017D00040F00200486000BF3C48406800F00C0048
:1017E0000828F9D10CBD10B5FFF792FF10BD10B558
:1017F0003648006840F001003449086008464068F7
:101800003449084031494860084600683249084078
:101810002E4908600846006820F4802008600846C9
:10182000406820F4FE0048604FF41F008860FFF716
:10183000DAFF4FF000602949086010BD10B50021A3
:1018400000200022214B5B6803F00C0121B1042928
:1018500006D0082928D107E0214B224C236027E03D
:101860001F4B204C236023E0184B5B6803F470107F
:10187000164B5B6803F48032022303EB904022B9DD
:10188000194B4343174C23600DE0104B5B6803F486
:10189000003323B1144B4343124C236003E0104B3D
:1018A0004343104C236003E00D4B0E4C236000BFFC
:1018B00000BF064B5B68C3F303130C4CE15C094BA0
:1018C0001B68CB40074C236010BD00000010024095
:1018D000002002400000FFF8FFFFF6FE08ED00E0E8
:1018E00000127A00A001002000093D00A4010020A0
:1018F00010B50121080701F074FD012002F054F831
:1019000002F071F810BD10B500214FF4FE7001F027
:1019100075FDFFF7EDFF10BD10B5002400202C4928
:10192000086014E02A48A038006858B1601CC4B2AE
:101930001E2001F040F9642C09DB002024490860D6
:10194000012010BD0120224908600020F9E7E9E7E5
:1019500010B5012002F0F9F8FFF7DEFF08B1FFF73C
:10196000D2FF10BD1FB50121052001F02DFD012082
:10197000ADF80C0028208DF80F0003A9154801F0E0
:1019800067FA0021084601F079FB01200090002051
:101990008DF8040008208DF8050001208DF8060060
:1019A000684602F05BF806208DF8080002208DF8EA
:1019B00009008DF80A0001208DF80B0002A801F043
:1019C00070FFFFF7A9FF08B9FFF792FF1FBD0000E6
:1019D000A00121420008014010B54FF48051F948A0
:1019E00001F0E3FA4FF40061F64801F0DEFA4FF43B
:1019F0000061F44801F0DBFA4FF48051F14801F046
:101A0000D6FA10BD10B54FF48051EE4801F0CDFA72
:101A10004FF40061EB4801F0CAFA4FF40061E94865
:101A200001F0C3FA10BD10B54FF48051E54801F044
:101A3000BCFA4FF48051E34801F0B9FA10BD2DE92A
:101A4000F04105462C464FF48051DE4801F0AFFAD4
:101A500000261CE0274607F08007802F04D13901BB
:101A6000D84801F0A2FA04E04FF40061D54801F033
:101A70009EFA6006040E4FF48051D24801F095FAA8
:101A80004FF48051CF4801F092FA701CC6B2082E74
:101A9000E0DBBDE8F08110B50446FFF79DFF78203C
:101AA000FFF7CDFFFFF7BFFF0020FFF7C8FFFFF7ED
:101AB000BAFF2046FFF7C3FFFFF7B5FFFFF7A2FF0E
:101AC00010BD10B50446FFF787FF7820FFF7B7FF7A
:101AD000FFF7A9FF4020FFF7B2FFFFF7A4FF204662
:101AE000FFF7ADFFFFF79FFFFFF78CFF10BD70B54D
:101AF00004460D461DB1E0B2FFF7E3FF02E0E0B29D
:101B0000FFF7C9FF70BD70B50646002418E004F168
:101B1000B0000021FFF7EBFF00210846FFF7E7FFC9
:101B200000211020FFF7E3FF002505E001213046EA
:101B3000FFF7DDFF681CC5B2802DF7DB601CC4B267
:101B4000082CE4DB70BD06E041F6650100E0491EAB
:101B50000029FCD1401E0028F6D17047014605E05F
:101B6000002001E0421CD0B27B28FBDB0A00A1F17F
:101B70000101F5D1704770B504460D4605F1B0007E
:101B80000021FFF7B4FF102141EA14100021FFF7F4
:101B9000AEFF04F00F000021FFF7A9FF70BD10B5E4
:101BA00000218D20FFF7A3FF00211420FFF79FFFE6
:101BB0000021AF20FFF79BFF10BD10B500218D2045
:101BC000FFF795FF00211020FFF791FF0021AE20C5
:101BD000FFF78DFF10BD70B5002418E004F1B000D0
:101BE0000021FFF784FF00210846FFF780FF002156
:101BF0001020FFF77CFF002505E001210020FFF702
:101C000076FF681CC5B2822DF7DB601CC4B2082CBD
:101C1000E4DB70BD70B5002418E004F1B0000021D1
:101C2000FFF765FF00210846FFF761FF0021102044
:101C3000FFF75DFF002505E001210846FFF757FF8C
:101C4000681CC5B2802DF7DB601CC4B2082CE4DB35
:101C500070BD2DE9F04707460E469046994600258F
:101C60000024A8F12000C5B27F2F02DD0027B01CA0
:101C7000C6B2B9F1100F24D131463846FFF77BFFC9
:101C8000002408E004EB05114F4A505C0121FFF7E6
:101C90002EFF601CC4B2082CF4DB701CC1B23846A5
:101CA000FFF769FF002409E004EB05110831464AFB
:101CB000505C0121FFF71BFF601CC4B2082CF3DB52
:101CC00012E031463846FFF756FF00240AE005EBE4
:101CD00045013E4A02EB4101085D0121FFF707FF84
:101CE000601CC4B2062CF2DBBDE8F08710B50246DA
:101CF000012000E050430B00A1F10104E1B2F9D151
:101D000010BD2DE9FF5F074691461E460E9D4FF020
:101D1000000A002435E0301B401EC1B20A20FFF744
:101D2000E5FFB9FBF0F00A21B0FBF1F201FB12086C
:101D3000BAF1000F14D1701EA04211DDB8F1000FEE
:101D40000CD1AB4605EBDB71491001FB0471C8B245
:101D50002B4620220199FFF77CFF10E04FF0010A8B
:101D6000AB4605EBDB71491001FB0471C8B208F109
:101D70003001CAB22B460199FFF76BFF00BF601C10
:101D8000C4B2B442C7DBBDE8FF9F2DE9F041044671
:101D90000F461546984600260FE0AA5D4346394691
:101DA0002046FFF756FF04F10800C4B2782C02DD8C
:101DB0000024B81CC7B2701CC6B2A85D0028ECD1C4
:101DC000BDE8F08100080140F25E0008CA5C00082E
:101DD0002DE9F04180460E46154600273146404623
:101DE000FFF7C9FE00240AE0754A02EB8511085D81
:101DF0000121FFF77CFE781CC7B2601CC4B2102C16
:101E0000F2DB701CC1B24046FFF7B5FE00240CE0C7
:101E10006900491C6A4A02EB4111085D0121FFF784
:101E200066FE781CC7B2601CC4B2102CF0DBBDE8A3
:101E3000F0812DE9F05F06460F4690461C46DDF81E
:101E400028A04FF0000BE11704EB5171C910A4EB6F
:101E5000C10131B92046E11704EB5171C1F3C70547
:101E600006E02046E11704EB5171C910491CCDB2C0
:101E70003D4615E029463046FFF77DFEB1460BE0B2
:101E800059460BF1010B1AF801000121FFF72FFE53
:101E900009F1010000F0FF09C145F1DB681CC5B282
:101EA000A542E7DBBDE8F09F08B50121042001F061
:101EB0008BFA4FF4C050ADF8000010208DF80300ED
:101EC00003208DF8020069463E4800F0C1FF4FF440
:101ED000C0513C4801F069F84FF4487000F06BFEC7
:101EE0000021AE20FFF703FE00210846FFF7FFFDAB
:101EF00000211020FFF7FBFD00214020FFF7F7FD38
:101F00000021B020FFF7F3FD00218120FFF7EFFD56
:101F10000021FF20FFF7EBFD0021A120FFF7E7FDE7
:101F20000021A620FFF7E3FD0021A820FFF7DFFD39
:101F300000213F20FFF7DBFD0021C820FFF7D7FD80
:101F40000021D320FFF7D3FD00210846FFF7CFFD86
:101F50000021D520FFF7CBFD00218020FFF7C7FD32
:101F60000021D820FFF7C3FD00210520FFF7BFFDAA
:101F70000021D920FFF7BBFD0021F120FFF7B7FDBD
:101F80000021DA20FFF7B3FD00211220FFF7AFFD9B
:101F90000021DB20FFF7ABFD00213020FFF7A7FD7C
:101FA00000218D20FFF7A3FD00211420FFF79FFDE6
:101FB0000021AF20FFF79BFDFFF70DFE08BD0000DD
:101FC000B4010020000801402DE9F05F04464FF005
:101FD0000008C14600250026002734B1012C09D095
:101FE000022C0CD0032C14D10EE04FF000084FF05F
:101FF000010911E04FF002084FF003090CE04FF027
:1020000004084FF0050907E04FF006084FF00709F4
:1020100002E00020BDE8F09F00BF404600F039FA22
:102020000546484600F035FA0646C5F30B0146EA78
:10203000014003F0C1FC07464F4805604F48066069
:102040004F49384603F000FD82464FF09B4103F0B4
:10205000D1FB07464FF08041384603F0F5FC82463D
:10206000484903F0F1FC07463946384603F0ECFCDA
:102070008346454903F0E8FC824651464FF07E50C6
:1020800003F0B8FB07464149384603F0A9FD07466F
:102090003F49384603F0D8FC07463846BAE710B542
:1020A00000F07CF800203B4908603B49C1F804017E
:1020B0004FF4FA7000F07FFD4FF6FF71082000F03A
:1020C000BFF94FF6FF71092000F0BAF94FF6FF7122
:1020D0000A2000F0B5F94FF6FF710B2000F0B0F9BF
:1020E0004FF48061102000F0ABF94FF480611120B3
:1020F00000F0A6F94FF48061122000F0A1F94FF42E
:102100008061132000F09CF941F20101142000F0DD
:1021100097F941F20101152000F092F941F2010115
:10212000162000F08DF941F20101172000F088F926
:102130000121192000F084F94CF20D211B2000F040
:102140007FF948F640411E2000F07AF948F64041F8
:102150001F2000F075F948F64041202000F070F98A
:1021600048F64041212000F06BF941F201711A203C
:1021700000F066F910BD0000B4070020B807002089
:102180008096184CDA0F4940B5FE9637B222112ED0
:10219000A5D46853000121420000214208B5012165
:1021A000082001F011F90121402001F00DF94FF450
:1021B0004060ADF8000010208DF8030003208DF87A
:1021C00002006946CB4800F043FE4FF44061C94825
:1021D00000F0EBFE0320ADF8000010208DF80300A6
:1021E00003208DF802006946C34800F031FE01204B
:1021F000C2490860C249C1F8AC0108BD10B5BD486C
:10220000001D006820F47040BA49091D08600846A6
:10221000006840F4405008600120B849091D08607A
:10222000B749C1F8A801042000F0A1FC0020B3497F
:10223000091D0860042000F09AFC0020B049C1F894
:10224000A801042000F093FC10BD10B5A948001DA2
:10225000006820F47040A749091D0860084600681E
:1022600040F4405008600020A4490860A449C1F827
:10227000AC01042000F07BFC0120A0490860A049CB
:10228000C1F8AC01042000F072FC10BD10B50024B0
:102290009848001D006820F470409649091D0860A8
:1022A0000846006840F40040086001209349091D79
:1022B0000860042000F05BFC01209149C1F8A801EE
:1022C000042000F054FC07E0601C84B2FA2C03DD0B
:1022D000FFF7BBFF012010BD88487C38006800284C
:1022E000F2D18649086000BFF5E710B500208349A8
:1022F00008608048001D006820F470407D49091D79
:1023000008600846006840F44050086000207C499E
:10231000C1F8AC01042000F02AFC012077490860D4
:10232000042000F024FC00207549C1F8A80110BD6C
:1023300010B50020714908606E48001D006820F447
:1023400070406C49091D08600846006840F4405020
:10235000086001206A49C1F8AC01042000F007FCC4
:10236000012066490860042000F001FC0020644957
:10237000C1F8A80110BD70B504465E48001D006894
:1023800020F470405B49091D08600846006840F46D
:1023900040500860002059490860002517E0E00916
:1023A0005649091D08606006040E042000F0DFFB9A
:1023B00001205349C1F8A801042000F0D8FB0020F7
:1023C0004E490860042000F0D2FB681CC5B2082DFD
:1023D000E5DB70BD70B5054600244648001D006869
:1023E00020F470404349091D08600846006840F425
:1023F00000400860042000F0BAFB002616E0002030
:102400003E490860042000F0B2FB01203C49C1F8BD
:10241000A8016006040E39487C38006808B1601CC9
:10242000C4B2042000F0A3FB701CC6B2082EE6DB89
:1024300015B1FFF77DFF01E0FFF757FF204670BDA4
:102440002DE9F05F05460C46002600270220834652
:10245000824681468046FFF7D1FE5420FFF78BFF6E
:10246000FFF714FF80462846FFF785FFFFF70EFFB2
:1024700081462012FFF77FFFFFF708FF8246E0B298
:10248000FFF779FFFFF702FF8346FFF7DEFEBDE8A7
:10249000F09F2DE9F04705460024002602208246E1
:1024A000814680460746FFF7A9FE5420FFF763FFE9
:1024B000FFF7ECFE07462846FFF75DFFFFF7E6FE55
:1024C0008046FFF79BFE5520FFF755FFFFF7DEFE26
:1024D00081460020FFF77EFF06460020FFF77AFFC7
:1024E0000446FFF7B2FE04EB062084B22046BDE8A6
:1024F000F0870000000C014000080140A881214243
:102500000080214208B50121082000F05DFF4FF452
:102510008070ADF8000010208DF8030003208DF8C6
:1025200002006946044800F093FC4FF480710248B1
:1025300000F03BFD08BD0000000C014008B5012182
:102540001C2000F041FF0121554800F052FD4FF4DE
:102550008040ADF8000048208DF8030069465148DE
:1025600000F076FC4FF48050ADF8000048208DF864
:10257000030069464B4800F06BFC0120ADF80000F9
:1025800028208DF803006946474800F061FC4FF4AD
:102590008050ADF8000048208DF80300694643489C
:1025A00000F056FC0120ADF8000048208DF8030033
:1025B00069463C4800F04CFC08BD10B5044614B117
:1025C00001203B4908703A48007880B10121354824
:1025D00000F0D1FCB0B14FF48041324800F0CBFCA8
:1025E00080B10121304800F0C6FC01280AD020212A
:1025F0002E4800F0C0FC28B14FF48051294800F06B
:10260000BAFC58BB0A2000F0D6FA0020284908700E
:102610000121244800F0AFFC08B9052010BD4FF49B
:102620008041204800F0A7FC08B90120F6E72021EE
:102630001E4800F0A0FC08B90220EFE74FF48051DB
:10264000184800F098FC08B90420E7E70121164873
:1026500000F091FC012820D10320DFE7012111487F
:1026600000F089FC012818D181030E4800F083FC9A
:10267000012812D101210C4800F07DFC68B920210D
:102680000A4800F078FC40B94FF48051054800F04A
:1026900072FC10B90120064908700020BEE7000056
:1026A00000023000000C0140000801400010014011
:1026B000BC0700207FB504460D460121042000F030
:1026C00090FE0020ADF80A00ADF80600ADF8085005
:1026D000ADF8044001A90E4801F014FB0122114697
:1026E0000B4801F086FE1E208DF8000000208DF8BA
:1026F000010003208DF8020001208DF803006846D8
:1027000001F0CFF80121024801F058FE7FBD000022
:102710000008004010B500240020CB49086090203C
:1027200000F09CF9002000F099F9002000F096F9E3
:10273000002000F093F9FF2000F090F944EA002413
:10274000FF2000F08BF904430120C049C1F8880143
:10275000204610BD08B50121042000F035FE1C20E4
:10276000ADF8000010208DF8030003208DF8020062
:102770006946B74800F06CFB1C21B54800F015FC19
:1027800000F093F9082000F0C6F9FFF7C3FFB14944
:10279000088008BD10B500240020AB490860052062
:1027A00000F05CF9FF2000F059F904460120A74928
:1027B000C1F88801204610BD10B504460020A2498A
:1027C0000860012000F04AF9204600F047F9012096
:1027D0009E49C1F8880110BD10B500209A490860D3
:1027E000062000F03BF901209849C1F8880110BD8E
:1027F00010B5002094490860042000F02FF9012052
:102800009249C1F8880110BD2DE9F04106460C46F9
:10281000174600208C490860032000F01FF9C4F31C
:10282000074000F01BF9C4F3072000F017F9E0B2ED
:1028300000F014F9002505E0FF2000F00FF97055B5
:10284000681C85B2BD42F7DB01207F490860BDE806
:10285000F08110B500BFFFF79DFF00F001000028D8
:10286000F9D110BD2DE9F04106460C461746FFF799
:10287000B3FF002074490860022000F0EFF8C4F3B1
:10288000074000F0EBF8C4F3072000F0E7F8E0B2EF
:1028900000F0E4F8002504E0705D00F0DFF8681C4B
:1028A00085B2BD42F8DB012067490860FFF7D1FF20
:1028B000BDE8F0812DE9F04107460E461446F0B21E
:1028C000C0F58075AC4200DC254612E02A46314650
:1028D0003846FFF7C7FFAC4200D10BE02F442E442F
:1028E000601B84B2B4F5807F02DD4FF4807500E098
:1028F0002546EBE700BFBDE8F08110B50446240390
:10290000FFF76AFFFFF7A5FF00204F49086020206E
:1029100000F0A4F8C4F3074000F0A0F8C4F30720C7
:1029200000F09CF8E0B200F099F801204749C1F8A6
:102930008801FFF78EFF10BD2DE9F04781460F4655
:1029400016464FEA1738C7F30B0ACAF58054A64259
:1029500000DC344644E04FEA08314FF480523E48F0
:10296000FFF752FF002508E00AEB05003A49085C32
:10297000FF2800D003E0681C85B2A542F4DB00BF4D
:10298000A54216DA4046FFF7B8FF002507E019F820
:10299000050005EB0A01304A5054681C85B2A54277
:1029A000F5DB4FEA08314FF480522B48FFF782FFE6
:1029B00004E0224639464846FFF77CFFA64200D194
:1029C0000FE008F101084FF0000AA1442744301B32
:1029D00086B2B6F5805F02DD4FF4805400E03446E5
:1029E000B9E700BFBDE8F08710B5FFF7F5FEFFF7C8
:1029F00030FF002014490860C72000F02FF80120A4
:102A00001249C1F88801FFF724FF10BD10B500205E
:102A10000D490860B92000F021F801200B49C1F8E8
:102A20008801032000F0A3F810BD10B5002006496E
:102A30000860AB2000F012F801200449C1F88801B9
:102A4000032000F094F810BD8801214200002142CB
:102A500000080140BE070020F86F002070B5054651
:102A6000002405E0601CC4B2C82C01DD002070BD4C
:102A700002212F4802F0CFF80028F3D029462C4835
:102A800002F076F8002405E0601CC4B2C82C01DD19
:102A90000020ECE70121264802F0BDF80028F3D021
:102AA000234802F067F8C0B2E1E708B5012141F21E
:102AB000040000F089FCE020ADF8000018208DF83B
:102AC000030003208DF8020069461A4800F0C0F99F
:102AD000E021184800F069FA0020174908804FF4F7
:102AE00082704880002088800220C88001200881F0
:102AF00040024881382088810020C8810720088250
:102B00000B4801F05FFF0121094802F000F8FF20A7
:102B1000FFF7A4FF08BD10B50446074884810146AD
:102B2000034801F04FFF0121014801F0F0FF10BD03
:102B30000030014000080140F87F002010B56FF020
:102B4000040000F0F8FE2E4800682E49B0FBF1F0BA
:102B50002D4908700846007800EB4001C1EBC01019
:102B60004FF6FF7101EAC0002849088010BD0146F8
:102B7000254A12784A434FF0E0235A6100229A61B5
:102B80001A46126942F001021A6100BF4FF0E022BA
:102B9000106900F001021AB100F48032002AF5D069
:102BA0004FF0E022126922F001024FF0E0231A6197
:102BB00000229A6170470146144A12884A434FF036
:102BC000E0235A6100229A611A46126942F001021A
:102BD0001A6100BF4FF0E022106900F001021AB143
:102BE00000F48032002AF5D04FF0E022126922F082
:102BF00001024FF0E0231A6100229A617047000041
:102C0000A001002000127A00C0070020C2070020A7
:102C1000014600BF704700BF494A128802F04002D7
:102C2000002AF9D0C2B2464B1B1D1A80704710B55E
:102C300086B00446012144F2040000F0C5FB4FF4C5
:102C40000070ADF8140003208DF8160018208DF8E0
:102C5000170005A93B4800F0FBF84FF48060ADF881
:102C6000140004208DF8170005A9364800F0F0F88C
:102C700025208DF8000003208DF801008DF802005A
:102C800001208DF80300684600F00BFE019400203F
:102C9000ADF80800ADF80A00ADF80C00ADF8100072
:102CA0000C20ADF80E0001A9254800F034FC0122EB
:102CB00040F22551224800F0C6FC0121204800F0D6
:102CC000B6FC06B010BD10B540F225511C4800F00E
:102CD0009FFD10B31A4800F01BFDC4B21A480088CB
:102CE00000F40040C8B91848008800F4804060B182
:102CF0000A2C03D000201449088020E012480088E4
:102D000040F400401049088019E00D2C06D10E480F
:102D1000008840F480400C49088010E00A48008890
:102D2000C0F30D0009490C5407480088401C0649AF
:102D3000088008460088C72801DD0020088010BDF3
:102D40000038014000080140C80700200A80002028
:102D50000948804709480047FEE7FEE7FEE7FEE72F
:102D6000FEE7FEE7FEE7FEE7FEE7FEE7044805496B
:102D7000054A064B70470000EF17000831010008B4
:102D800038810020388700203883002038830020D5
:102D900010B50446CC48844208D10121042000F03B
:102DA0002DFB0021042000F029FB46E0C7488442A7
:102DB00008D10121082000F021FB0021082000F0AB
:102DC0001DFB3AE0C248844208D10121102000F0E6
:102DD00015FB0021102000F011FB2EE0BD488442BD
:102DE00008D10121202000F009FB0021202000F063
:102DF00005FB22E0B848844208D10121402000F0C0
:102E0000FDFA0021402000F0F9FA16E0B3488442B0
:102E100008D10121802000F0F1FA0021802000F08B
:102E2000EDFA0AE0AE48844207D10121801500F096
:102E3000E5FA0021A01500F0E1FA10BD10B501215E
:102E4000084600F0DBFA0021012000F0D7FA10BD9F
:102E50002DE9F04102460025002600200023002431
:102E6000002791F803C00CF00F0591F803C00CF097
:102E7000100CBCF1000F03D091F802C04CEA05051C
:102E800091F800C0BCF1000F31D0146800202BE095
:102E90004FF0010C0CFA00F3B1F800C00CEA030685
:102EA0009E4220D183004FF00F0C0CFA03F7BC4375
:102EB00005FA03FC4CEA040491F803C0BCF1280FA6
:102EC00006D14FF0010C0CFA00FCC2F814C00AE065
:102ED00091F803C0BCF1480F05D14FF0010C0CFA7A
:102EE00000FCC2F810C0401C0828D1D31460B1F80F
:102EF00000C0BCF1FF0F34DD546800202EE000F16B
:102F0000080C4FF0010808FA0CF3B1F800C00CEA05
:102F100003069E4221D183004FF00F0C0CFA03F7F9
:102F2000BC4305FA03FC4CEA040491F803C0BCF16D
:102F3000280F05D100F1080C08FA0CF8C2F814802B
:102F400091F803C0BCF1480F07D100F1080C4FF015
:102F5000010808FA0CF8C2F81080401C0828CED3EB
:102F60005460BDE8F0814FF6FF710180022181704D
:102F70000421C17070470246002093680B400BB1DA
:102F8000012000E0002070470146886880B2704749
:102F900002460020D3680B400BB1012000E0002066
:102FA00070470146C86880B270470161704741614F
:102FB00070470AB1016100E041617047C16070472C
:102FC0004FF480320A438261816182618269826941
:102FD000704702460020434B18684FF68073184034
:102FE00040EA021008433F4B186070473E49C861F1
:102FF0007047F0B50A46002300240021002500F0A8
:103000000046B6F1004F02D1364EF16901E0354E6F
:103010007168C0F3034583B200F44016B6F5401F53
:1030200008D121F070612F4E766826F070662D4F22
:103030007E6012E000F48016B6F5801F06D10326EC
:1030400006FA05F4A14341F0706106E0460D360131
:1030500003FA06F6B14341F0706122B1460D360124
:1030600003FA06F6314300F00046B6F1004F02D1F4
:103070001C4EF16101E01B4E7160F0BD30B50022C5
:103080008B071C0F0F2303FA04F2164B08338C1026
:1030900053F824309343134C08348D1044F82530F2
:1030A00023468C1053F824308C07240F00FA04F4C4
:1030B00023430C4C08348D1044F8253030BD0A49A8
:1030C000DC3108607047000000080140000C01403E
:1030D000001001400014014000180140001C014094
:1030E000002001400000014000002042DF4800684D
:1030F00040F00100DD49086008464068DC490840AE
:10310000DA49486008460068DA490840D74908604B
:103110000846006820F4802008600846406820F4D3
:10312000FE0048604FF41F0088607047CF4909686F
:1031300021F48031CD4A11601146096821F48021C3
:103140001160B0F5803F03D0B0F5802F0ED106E0BE
:10315000C649096841F48031C44A116007E0C34997
:10316000096841F4A021C14A116000E000BF00BF1E
:10317000704710B501460022002300204A11012AA1
:1031800002D1BA4C236806E0022A02D1B74C236A66
:1031900001E0B64C636A01F01F02012494401C4018
:1031A0000CB1012000E0002010BD38B500200090D7
:1031B0000024002500BF3120FFF7DBFF0546009803
:1031C000401C00900098B0F5A06F01D0002DF2D007
:1031D0003120FFF7CEFF08B1012400E00024204693
:1031E00038BD01460020A14A106820F0F80040EAEE
:1031F000C10010607047A049086070470246002077
:103200009A4B586820F47C1042EA01031843974B0C
:103210005860704798490866704701460020934AF5
:10322000506820F003000843506070478F484068A2
:1032300000F00C007047014600208C4A506820F0D6
:10324000F00008435060704701460020874A5068EC
:1032500020F4E06008435060704701460020834A34
:10326000506820F4605040EAC1005060704729B1B6
:103270007E4A527A02437D4B5A7204E07B4A527A6C
:1032800082437A4B5A7270477B49D8310860704745
:1032900001460020754A506820F4404008435060C1
:1032A00070470021714A20321170704A82F8201054
:1032B000012802D004280AD104E001216B4A2032FF
:1032C000117005E00521694A2032117000E000BF4D
:1032D00000BF70476949086070476449096A014343
:1032E000624A11627047654944390860704730B5D9
:1032F00000210022002400235C4D6D6805F00C01C4
:1033000021B1042905D0082923D105E05C4D0560D1
:1033100022E05B4D05601FE0544D6D6805F47012AE
:10332000524D6D6805F48034022505EB92421CB9BC
:10333000544D554305600BE04C4D6D6805F4003568
:103340001DB1504D5543056002E04D4D554305609C
:1033500002E04B4D056000BF00BF444D6D6805F0B5
:10336000F0010909484D6B5C0568DD4045603F4D43
:103370006D6805F4E061090A434D6B5C4568DD400A
:1033800085603A4D6D6805F46051C90A3E4D6B5C2D
:103390004568DD40C560354D6D6805F44041890BD9
:1033A0003A4D6B5CC568B5FBF3F5056130BD29B1DD
:1033B0002E4A526902432D4B5A6104E02B4A52694E
:1033C00082432A4B5A61704729B1284A92690243C5
:1033D000264B9A6104E0254A92698243234B9A6105
:1033E000704729B1214AD2690243204BDA6104E0D7
:1033F0001E4AD26982431D4BDA61704729B11B4ACC
:10340000D2680243194BDA6004E0184AD26882435A
:10341000164BDA60704729B1144A12690243134B04
:103420001A6104E0114A12698243104B1A61704715
:1034300012494039086070470F49C86470470B490A
:10344000C87170470948406A40F080700749486277
:10345000704701460020054A92680A400AB10120DF
:1034600000E0002070470149887270470010024058
:103470000000FFF8FFFFF6FE0000424280044242D7
:1034800000127A0000093D00CA070020DA07002078
:1034900010B50446FB48844209D101218803FFF797
:1034A000ADFF00214FF48040FFF7A8FF32E0F6485F
:1034B000844209D101214804FFF7ADFF00214FF4F8
:1034C0000030FFF7A8FF25E0F048844209D1012130
:1034D0008804FFF7A0FF00214FF48020FFF79BFF37
:1034E00018E0EB48844209D10121C804FFF793FF9B
:1034F00000214FF40020FFF78EFF0BE0E5488442E7
:1035000008D101210805FFF786FF00214FF4801044
:10351000FFF781FF10BD2DE9F04786B005460E4646
:103520000024A24600BFA1460027B08900B100BF19
:103530002F462C8A4CF6FF700440F08804432C82FE
:10354000AC894EF6F3100440B08831890843718984
:1035500008430443AC81AC8A4FF6FF400440B08975
:103560000443AC8201A8FFF7C2FEC648874202D1DD
:10357000DDF810A001E0DDF80CA0A88900F40040FF
:1035800040B10AEBCA0000EB0A1031684900B0FBF9
:10359000F1F807E00AEBCA0000EB0A103168890075
:1035A000B0FBF1F86420B8FBF0F0040120096421BD
:1035B00001FB1089A88900F4004040B1322000EBE3
:1035C000C900B0FBF1F000F00700044308E032202E
:1035D00000EB09106421B0FBF1F000F00F00044390
:1035E0002C8106B0BDE8F0874FF416510160002130
:1035F0008180C18001810C2141810021818170473E
:1036000010B502460020108A4FF2FF0318400B88C5
:103610004C8823438C882343CC882343184310824F
:1036200010BD0021018041808180C180704721B19F
:10363000828942F40052828104E082894DF6FF7350
:103640001A4082817047F0B5034600240026002509
:10365000002040F66A17B94200D100BF1846C1F3F6
:10366000421401F01F06012707FA06F5012C01D1CB
:103670000C3004E0022C01D1103000E014301AB1FB
:1036800007682F43076002E00768AF430760F0BD9B
:103690001AB1838A0B43838202E0838A8B4383823D
:1036A0007047028A4FF6F0731A400282028A0A4378
:1036B0000282704782894FF2FF731A4082818289A9
:1036C0000A438281704721B1828942F002028281DD
:1036D00004E082894FF6FD731A4082817047028AA6
:1036E0004FF6DF731A400282028A0A430282704751
:1036F00021B1028A42F48042028204E0028A4BF63F
:10370000FF731A4002827047C1F30802828070473B
:1037100001468888C0F308007047818941F00101A3
:1037200081817047028BD2B20283028B42EA01226E
:1037300002837047028B02F47F420283028B0A43AA
:103740000283704721B1828A42F02002828204E023
:10375000828A4FF6DF731A408282704721B1828AD3
:1037600042F01002828204E0828A4FF6EF731A4020
:103770008282704721B1828A42F00802828204E08C
:10378000828A4FF6F7731A408282704721B182898C
:1037900042F40042828103E08289C2F30E028281F8
:1037A000704721B1828A42F40062828204E0828AF8
:1037B0004FF2FF731A4082827047828A4FF6FB7382
:1037C0001A408282828A0A438282704721B1828AA9
:1037D00042F00202828204E0828A4FF6FD731A40B0
:1037E0008282704702460020B1F5007F00D100BF01
:1037F00013880B400BB1012000E00020704701F45A
:103800000072B2F5007F00D100BFCA43028070474A
:1038100070B50246002400230025002040F66A16F9
:10382000B14200D100BFC1F3421501F01F030126D0
:1038300006FA03F3012D02D19689334006E0022DEA
:1038400002D1168A334001E0968A33400C120126D9
:1038500006FA04F41688344013B10CB1012000E0DC
:10386000002070BD10B50022002340F66A14A1426A
:1038700000D100BF0A1201249440A3B2DC430480AB
:1038800010BD0000003801400044004000480040E6
:10389000004C00400050004031490143314A116062
:1038A000704770B5002100230F22C47804B32D4C5B
:1038B000246804F4E064C4F5E064210AC1F104035F
:1038C000CA40447804FA03F1847814402143090182
:1038D000254C0678A155047804F01F050124AC405E
:1038E00005786D11AD0005F1E025C5F8004109E04E
:1038F000047804F01F050124AC401C4D06787611B5
:1039000045F8264070BD1A4A0A400243154B1B1F5A
:103910001A60704739B1134A121D12680243114BE5
:103920001B1D1A6006E00F4A121D126882430D4BE0
:103930001B1D1A607047042808D14FF0E021096967
:1039400041F004014FF0E022116107E04FF0E02167
:10395000096921F004014FF0E02211617047000075
:103960000000FA050CED00E000E400E080E100E07A
:1039700080FFFF1F10B501210807FFF74CFD002154
:103980004FF08050FFF747FD10BD2A49086270478D
:1039900028490861704701460020274A106820F036
:1039A000E0000843106070472249A031086070476A
:1039B00010B502460020204B186820F00300104389
:1039C00018601E4B1B6843F004031C4C2360012944
:1039D00001D130BF00E020BF184B1B6823F0040367
:1039E000164C236010BD1448006840F004001249D2
:1039F00008600846006840F0020008600F48006850
:103A000040F004000D49086000BF00BF30BF7047A0
:103A100001460020084A52680A400AB1012000E02D
:103A2000002070470449096841EA8001024A116098
:103A30007047000000000E420070004010ED00E0F2
:103A4000002044490860091D0860091D0860091D1F
:103A5000086041483F4914310860704700213D49E2
:103A60008279002A3AD00A46126803689A430B46C4
:103A70001A600A1D126803689A430B1D1A600279C6
:103A800011440A6803681A430A60324A083212680D
:103A900003689A432F4B08331A601A1D1268036893
:103AA0009A432C4B0C331A604279102A0ED11A1FFC
:103AB000126803681A43274B08331A601A1D1268EC
:103AC00003681A43234B0C331A600DE021494279F5
:103AD00011440A6803681A430A6005E00279114438
:103AE0000A6803689A430A60704700210160017107
:103AF0000C2141710021817170471649103109680C
:103B00000143144A10321160704701460020114AE7
:103B1000143212680A400AB1012000E00020704708
:103B20000C49143108607047014600200022094BFF
:103B30001B6803EA0102074B14331B680B4013B1E7
:103B40000AB1012000E000207047024914310860EA
:103B50007047000000040140FFFF0F0010B504464D
:103B6000FE48844208D10121C014FFF747FC002120
:103B7000E014FFF743FCC4E0B4F1804F08D1012109
:103B80000846FFF748FC00210120FFF744FCB8E09D
:103B9000F348844208D101210220FFF73CFC0021B8
:103BA0000220FFF738FCACE0EE48844208D1012146
:103BB0000420FFF730FC00210420FFF72CFCA0E0DC
:103BC000E948844208D101210820FFF724FC0021A4
:103BD0000820FFF720FC94E0E448844208D101214A
:103BE0001020FFF718FC00211020FFF714FC88E0DC
:103BF000DF48844208D101212020FFF70CFC00217E
:103C00002020FFF708FC7CE0DA48844208D101213B
:103C10004014FFF7F3FB00216014FFF7EFFB70E0A7
:103C2000D548844209D10121C804FFF7E7FB0021F0
:103C30004FF40020FFF7E2FB63E0D048844209D153
:103C400001210805FFF7DAFB00214FF48010FFF790
:103C5000D5FB56E0CA48844209D101214805FFF747
:103C6000CDFB00214FF40010FFF7C8FB49E0C54829
:103C7000844208D101214020FFF7CDFB00214020E4
:103C8000FFF7C9FB3DE0C048844208D101218020F4
:103C9000FFF7C1FB00218020FFF7BDFB31E0BB48EF
:103CA000844208D101218015FFF7B5FB0021A01542
:103CB000FFF7B1FB25E0B648844209D10121080491
:103CC000FFF79CFB00214FF48030FFF797FB18E0D3
:103CD000B048844209D101214804FFF78FFB00213D
:103CE0004FF40030FFF78AFB0BE0AB48844208D169
:103CF00001218804FFF782FB00214FF48020FFF7A9
:103D00007DFB10BD00220288944B98420ED0994B47
:103D100098420BD0B0F1804F08D0914B984205D01B
:103D2000904B984202D0904B984204D14FF68F733B
:103D30001A404B881A438D4B984207D08C4B9842BF
:103D400004D04FF6FF431A40CB881A4302808B8879
:103D500083850B880385814B98420BD0854B984215
:103D600008D08B4B984205D08A4B984202D08A4BA0
:103D7000984201D10B7A038601238382704770B584
:103D8000002400220023058C4FF6FE763540058482
:103D9000028C8388048B4FF68F752C40B51E2C4007
:103DA0000D882C43751E2A400D892A434D882A43CD
:103DB0006A4DA8420BD06F4DA84208D0744DA8425E
:103DC00005D0744DA84202D0734DA84213D14FF6CE
:103DD000F7752A404D892A434FF6FB752A408D8896
:103DE0002A434FF6FF652B404FF6FF552B408D8938
:103DF0002B43CD892B4383800483CD888586028421
:103E000070BD70B5002400220023058C4FF6EF76BC
:103E100035400584028C8388048B48F6FF752C405E
:103E20004FF6FF452C400D884FF6FF7606EA052534
:103E30002C434FF6DF752A400D8906EA05152A4303
:103E40004D8806EA05152A43444DA84202D0494D43
:103E5000A8421DD14FF67F752A404D894FF6FF7657
:103E600006EA05152A434FF6BF752A408D8806EAF3
:103E700005152A434FF6FF352B404FF2FF752B40B7
:103E80008D8906EA85052B43CD8906EA85052B43F6
:103E900083800483CD880587028470BD70B50024BB
:103EA00000220023058C4FF6FF6635400584028C06
:103EB0008388848B4FF68F752C404FF6FC752C4011
:103EC0000D882C434FF6FF552A400D894FF6FF769B
:103ED00006EA05252A434D8806EA05252A431F4D93
:103EE000A84202D0234DA8421DD14FF2FF752A40AF
:103EF0004D894FF6FF7606EA05252A434FF6FF3532
:103F00002A408D8806EA05252A434EF6FF752B4088
:103F10004DF6FF752B408D8906EA05152B43CD899B
:103F200006EA05152B4383808483CD888587028428
:103F300070BD70B5002200230024058C4EF6FF767C
:103F400035400584038C8488828B48F6FF752A40AF
:103F50004FF6FF452A400D8820E00000002C01406C
:103F60000004004000080040000C00400010004029
:103F70000014004000340140004C0140005001405A
:103F80000054014000180040001C00400020004088
:103F90000040014000440140004801404FF6FF76D8
:103FA00006EA05252A434DF6FF752B400D8906EAE2
:103FB00005352B434D8806EA05352B43FA4DA842BB
:103FC00002D0FA4DA84208D14BF6FF752C408D89DE
:103FD0004FF6FF7606EA85152C4384808283CD88D0
:103FE000A0F84050038470BD828B4FF2FF331A401B
:103FF0008283828B4FF6FF7303EA01231A43828385
:104000007047F0B50C461546002200210026078CAB
:104010004EF6FF7C07EA0C070784828B018C4FF673
:10402000FF7707EA043640F6FF473A404FF6FF773E
:1040300007EA05273A434FF6FF7707EA03373A4383
:10404000D94FB8420ED0D94FB8420BD0B0F1804F03
:1040500008D0D74FB84205D0D64FB84202D0D64F7D
:10406000B84206D14DF6FF77394046F480573943C0
:1040700005E047F6FF57394044F4805739438283BF
:104080000184F0BD828B4FF6F3731A408283828BDA
:104090000A4382837047F0B50C4615460022002182
:1040A0000026078C4FF6FF6C07EA0C070784828B0B
:1040B000018C4FF6FF7707EA04264FF60C773A405B
:1040C0004FF6FF7707EA03172F433A43B64FB8423C
:1040D0000ED0B64FB8420BD0B0F1804F08D0B44FDD
:1040E000B84205D0B34FB84202D0B34FB84206D160
:1040F0004FF6FF57394046F48077394305E04FF2D9
:10410000FF57394044F48077394382830184F0BDFE
:10411000028B4FF2FF331A400283028B4FF6FF737C
:1041200003EA01231A4302837047F0B50C46154693
:10413000002200210026078C4FF6EF7C07EA0C07CF
:104140000784028B018C4FF6FF7707EA041640F6CE
:10415000FF473A404FF6FF7707EA03373A434FF6F7
:10416000FF7707EA05273A438F4FB8420ED08F4FAB
:10417000B8420BD0B0F1804F08D08D4FB84205D077
:104180008C4FB84202D08C4FB84206D14FF6DF7741
:10419000394046F01007394305E04FF65F77394064
:1041A00044F01007394302830184F0BD028B4FF6BF
:1041B000F3731A400283028B0A4302837047F0B5FF
:1041C0000C46154600220021068C4FF6FE773E4035
:1041D0000684028B018C4FF60C7632407E1C06EA78
:1041E00003162E433243704EB0420ED06F4EB04293
:1041F0000BD0B0F1804F08D06D4EB04205D06D4E5F
:10420000B04202D06C4EB04206D14FF6FD7631403E
:1042100044F00106314305E04FF6F576314044F0B5
:104220000106314302830184F0BD70B505460C469A
:104230005D4885420ED05D4885420BD0B5F1804F78
:1042400008D05B48854205D05A48854202D05A487A
:10425000854200D100E000BF208850B92389A288A0
:1042600061882846FFF7ABFFE1882846FFF79EFFED
:1042700025E0208804280AD12389A288618828465D
:10428000FFF753FFE1882846FFF742FF17E0208839
:1042900008280AD12389A28861882846FFF7FBFEF7
:1042A000E1882846FFF7EEFE09E02389A2886188AD
:1042B0002846FFF7A6FEE1882846FFF795FE70BD69
:1042C0002DE9F04105460C4600260127608808B913
:1042D000022600E00026A088012801D1022700E084
:1042E00001272088A0B92389A28861882846FFF782
:1042F00066FFE1882846FFF759FF23893A46314691
:104300002846FFF712FFE1882846FFF701FF13E078
:104310002389A28861882846FFF707FFE18828469D
:10432000FFF7F6FE23893A4631462846FFF747FF56
:10433000E1882846FFF73AFFBDE8F0810A884B88FC
:104340001A438B881A43CB881A430B891A434B892B
:104350001A438B891A43A0F8442070474FF6FF7127
:10436000818000210180C18041800172704700215D
:10437000018041808180C180018141818181C18131
:104380007047002101804180012181800021C1808E
:10439000018170470021018041808180C1800181BD
:1043A0004181818170470000002C014000340140B0
:1043B0000004004000080040000C004021B10288C9
:1043C00042F00102028004E002884FF6FE731A40B8
:1043D0000280704731B1B0F8442042F40042A0F8A6
:1043E000442005E0B0F84420C2F30E02A0F84420B7
:1043F00070471AB183890B43838102E083898B4321
:10440000838170478182704741EA0203A0F84830F7
:1044100070471AB183890B43838102E083898B4300
:104420008381704701894FF6F8721140018170470E
:104430000A46002101894FF68F731940114301810B
:10444000704730B504460D4629462046FFF7F0FF79
:10445000208940F00700208130BD2DE9F04104465D
:104460000D4616461F46602D06D13B4601223146B9
:104470002046FFF75AFE05E03B4601223146204622
:10448000FFF79DFE29462046FFF7D2FF208940F026
:1044900007002081BDE8F08130B50C46002101897C
:1044A000C9B24FF6FF7505EA032515432543294395
:1044B000018130BD2DE9F04105460E46174698466C
:1044C000002443463A4631462846FFF7E5FF2C894B
:1044D0004FF6F870044044F007044FF68F70044024
:1044E00044F070042C81BDE8F081F0B504460D461F
:1044F00016461F463B46324629462046FFF7CCFF6C
:10450000208940F480402081F0BD0185828270477F
:104510000A46002101884FF68F731940114301802C
:104520007047F0B50C4615461E46002100220023B8
:104530000189028B038C4FF6F877394021434FF6FF
:10454000FC473A4040F201173A434FF6DD773B40D3
:104550004FF6FF7707EA06172F433B43018102839B
:104560000384F0BD0A460021018B4FF68F7319407A
:104570001143018370470A460021018B48F6FF73FF
:1045800019404FF6FF7303EA022319430183704772
:104590000A460021818B4FF68F73194011438183A6
:1045A00070470A460021818B48F6FF7319404FF689
:1045B000FF7303EA022319438183704721B1028804
:1045C00042F08002028004E002884FF67F731A40B6
:1045D0000280704721B1828842F00402828004E0A8
:1045E00082884FF6FB731A408280704721B182881F
:1045F00042F00802828004E082884FF6F7731A4086
:104600008280704721B1828842F00102828004E0FA
:1046100082884FF6FE731A40828070470A46002156
:10462000018B4FF6F77319401143018370470A4617
:104630000021018B4FF2FF7319404FF6FF7303EA1D
:1046400002231943018370470A460021818B4FF6EC
:10465000F77319401143818370470A460021818B0B
:104660004FF2FF7319404FF6FF7303EA0223194319
:10467000818370470A460021018B4FF6FB73194076
:104680001143018370470A460021018B4FF6FF3327
:1046900019404FF6FF7303EA022319430183704761
:1046A0000A460021818B4FF6FB7319401143818329
:1046B00070470A460021818B4FF6FF3319404FF6B1
:1046C000FF7303EA02231943818370470A460021DE
:1046D000018B4FF67F7319401143018370470A46DF
:1046E0000021018BC1F30E014FF6FF7303EA022391
:1046F0001943018370470A460021818B4FF67F736F
:1047000019401143818370470A460021818BC1F310
:104710000E014FF6FF7303EA0223194381837047AA
:104720000A460021018C4FF6FD73194011430184A4
:1047300070470A460021018C4FF6F7731940114368
:10474000018470470A460021018C4FF6DF7319403F
:104750004FF6FF7303EA02131943018470470A46B8
:104760000021018C4FF67F7319404FF6FF7303EA67
:1047700002131943018470470A460021018C4FF649
:10478000FF5319404FF6FF7303EA022319430184D4
:1047900070470A460021018C4FF2FF7319404FF613
:1047A000FF7303EA02231943018470470A4600217C
:1047B000018C4DF6FF7319404FF6FF7303EA023385
:1047C00019430184704730B5002301248C40A3B203
:1047D000048C9C430484048C02FA01F5ADB22C4392
:1047E000048430BD30B5002304248C40A3B2048C73
:1047F0009C430484048C02FA01F5ADB22C4304847A
:1048000030BD70B50346002000241846183001253D
:104810008D40ACB21D8CA5431D8409B1082909D176
:1048200000EB6100056825F070050560056815431B
:1048300005600EE00D1FC5F34E052844056825F4FC
:10484000E045056005684FF6FF7606EA0226354327
:10485000056070BD21B1028842F00202028004E0CE
:1048600002884FF6FD731A400280704721B102881A
:1048700042F00402028004E002884FF6FB731A4003
:104880000280704721B1828842F08002828004E079
:1048900082884FF67F731A408280704702884FF6F5
:1048A000F7731A40028002880A43028070478288A8
:1048B0004FF68F731A40828082880A438280704745
:1048C00002894FF6F8731A40028102890A43028175
:1048D000704702894FF67F731A40028102890A43AA
:1048E0000281704781847047818570478186704757
:1048F0000187704781877047A0F840107047028891
:104900004FF6FF431A40028002880A430280704734
:104910000146888E70470146088F70470146888F90
:1049200070470146B1F8400070470146888C7047D7
:104930000146088D704702460020138A0B400BB1D8
:10494000012000E000207047CA430282704730B562
:104950000246002000230024158A05EA01039589F8
:1049600005EA010413B10CB1012000E0002030BDC4
:10497000CA4302827047000010B50446BE48844214
:1049800008D101218014FEF739FD0021A014FEF7A3
:1049900035FD16E0B948844208D101210014FEF724
:1049A0003AFD00212014FEF736FD0AE0B4488442A7
:1049B00007D10121C013FEF72EFD0021E013FEF701
:1049C0002AFD10BD10B50022028802F441520B8866
:1049D0004C8823438C882343CC8823430C8923436E
:1049E0004C8923438C892343CC8923431A43028077
:1049F000838B4FF2FF74234083830B8A038210BDA5
:104A00002DE9F04F85B005460C464FF0000902270E
:104A10004FF000084FF0010B0026B246A88B4FF272
:104A200040010840A88302202884B5F81C90A068A3
:104A3000022801D100BF38E0A08810B94FF0010B67
:104A400001E04FF0020B8D48854200D100E000BF2D
:104A50006846FEF74CFCDDF800A0E088B0F5007F6A
:104A60000AD14FEA1A2000EB80004000A168B0FB99
:104A7000F1F0401D86B20BE04FEA4B10BAFBF0F0AC
:104A800000EB80004000A168B0FBF1F0401D86B251
:104A90000A20B6FBF0F606F00108A6EB0800C0F30A
:104AA0004F074FF6FF7000EA0828022F01DBFF2FA7
:104AB00002DD02274FF00008E08840EA0800384392
:104AC0002884A088A1890843618808432188084375
:104AD00040F4006040EA0909A5F81C9005B0BDE863
:104AE000F08F0021018041808180C180018141815E
:104AF0008181C181072101827047002101804180AD
:104B00008180C1800221816000218181704721B1B3
:104B1000028842F04002028004E002884FF6BF7330
:104B20001A400280704721B1828B42F480628283F6
:104B300004E0828B4FF6FF331A408283704730B512
:104B4000002400230C110125A540ABB21AB18588C1
:104B50001D43858002E085889D43858030BD1AB164
:104B600083880B43838002E083888B438380704774
:104B7000818170470146888970474FF6FF629142F4
:104B800004D0028842F48072028004E002884FF66A
:104B9000FF631A400280704721B1828842F004020C
:104BA000828004E082884FF6FB731A40828070474F
:104BB00002884FF2FF731A40028002880A43028083
:104BC0007047018841F480510180704721B102880B
:104BD00042F40052028004E002884DF6FF731A404E
:104BE0000280704702460020012901D0108B00E0AE
:104BF000908A70470146088A7047B1F5804F04D10A
:104C0000028842F48042028004E002884BF6FF737F
:104C10001A40028070470246002013890B400BB1F6
:104C2000012000E000207047CA4302817047F0B5C0
:104C30000246002000240023002501F00F07012672
:104C4000BE40B4B20B1101269E40B3B2968806EA6C
:104C500003051689264016B10DB1012000E00020A1
:104C6000F0BD10B5002201F00F040123A3409AB259
:104C7000D343038110BD00000030014000380040E4
:104C8000003C00407047704770477047704775465A
:104C900000F028F8AE4605006946534620F00700AC
:104CA000854618B020B5FEF761F8BDE820404FF00A
:104CB00000064FF000074FF000084FF0000B21F006
:104CC0000701AC46ACE8C009ACE8C009ACE8C009D3
:104CD000ACE8C0098D4670470446AFF3008020461B
:104CE000FBF78DFA00487047D480002021F0004285
:104CF000A2F16052B2F5801F01F0004328BFD2F14B
:104D00007F6C0BD95FEA001C43EAC20242EB507091
:104D100018BF704728BF20F001007047B2F5801F10
:104D2000BCBF184670474FEA410C1CF5001F02D269
:104D3000084600F050BF70B500F042FB000000894B
:104D4000FFF7F6BF4FF00040A0F58000704700006D
:104D500010B591EA030F48BF83F0004300F1CE8302
:104D6000841A71EB030C05D2121943EB0C03001BE0
:104D700061EB0C01DFF824E14FEA1154A4EB135C62
:104D80001EEA430F18BF9EEA445F73D023EA0E0366
:104D9000DCF1200E21EA045143F4801332D322FACD
:104DA0000CFE10EB0E0023FA0CFE41EB0E01CCF1D1
:104DB000200E03FA0EFE10EB0E0051F10001B1F5CA
:104DC000801FCCF1200E32D201EB045112FA0EF208
:104DD000BDE8104058BF7047401C38BF5FEA420230
:104DE00018BF7047002814BF20F0010041F10001F6
:104DF0004FEA410313F5001F38BF7047A1F1C041CE
:104E000000F02CBB012A43EB0302ACF1200CDCF1D7
:104E10001F0E32BF4FF0000E23FA0CF310EB03000D
:104E200041EB0451B4EB115FD0D0A1EB045101F57B
:104E3000801149085FEA300001EB04510ED350F1B4
:104E4000000038BF12FA0EFE08D1BDE81040C9E7D5
:104E5000401C38BF5FEA4202CAD1C3E7BDE8104038
:104E60004FEA410313F5001F38BF7047A1F1C0415D
:104E700000F0F4BA9EEA445F08D011EA5E0FBDE884
:104E8000104004BF01F0004100207047BDE8104011
:104E900070B500F095FA00BF64FBBE3E0000E0FF75
:104EA000491058BFC1F140415B1058BFC3F14043A6
:104EB0008B42EFF3008070472DE9C04130B4DFF83A
:104EC000A0C23CEA111418BF3CEA131400F0EC80B5
:104ED00081EA03051CEA111444EAD57418BF1CEAE0
:104EE000131500F0C780A4EB05044FF0004545EA18
:104EF000C12145EAC32341EA505143EA525304F128
:104F00007F74994204F500344FEAC0204FEAC22270
:104F100008BF904200F09C804FEA13650FF24016E4
:104F2000765D4FEA134506FB05F7C7F1807706FB70
:104F300007F74FEAD737A7FB03687642C8F58038F2
:104F4000A7FB06CE38BFA8F1010807FB08E64FF023
:104F5000000EA6FB028CE6FB03CEDCF1000CCEF1CA
:104F6000004E38BFAEF1010EA6FB0C584FF0000703
:104F70004FF00005E6FB0E87A1FB08C6A0FB07CE9D
:104F800016EB0E0645F10005E1FB076515F1E04E55
:104F90007EBFA4F580345FEA46066D4116F18007B6
:104FA00045F100054FEA17274FEA066647EA05670D
:104FB000A6F1DE46B6F1805F4FEA15251FD93846C7
:104FC00024F0010C05EBC471BCF1FE6F01EB0C1178
:104FD00002D8F0BCBDE8008124425CBF01F5801E10
:104FE0009EEAC47F02D4F0BCBDE80081244238D4DC
:104FF000F0BCA1F1C041BDE8004100F02FBA4FEA7A
:10500000D22242EA43524FEAD323A7FB02864FEA59
:10501000D02040EA415007FB03661EEA0E0F4FEA1C
:10502000D12105FB026658BFA6EB0056B6EB005631
:105030004FEA520E4EEAC37E18EB0E0E56EB530E9D
:10504000BDD518EB02085E417F1C55F10005B6E79F
:105050004FF480154FF000074FF000064FF00008A6
:10506000ADE7F0BC4FF0000001F1C04101F000419C
:10507000BDE8008111EA0C1F0CEA131500D00CE00A
:1050800013EA0C1F00F025804FF00000F0BC81EA0D
:10509000030101F00041BDE80081F0BCBDE8004122
:1050A00081EA030100F0DAB9F0BCBDE8004170B557
:1050B00000F086F9097EFC3E00F007B881EA0301A2
:1050C0004FF0000001F00041704781EA030100F059
:1050D000C5B9F0BCBDE800414FF000002149704760
:1050E000FFFDFBF9F7F5F4F2F0EEEDEBE9E8E6E4AD
:1050F000E3E1E0DEDDDBDAD8D7D5D4D3D1D0CFCD34
:10510000CCCBCAC8C7C6C5C4C2C1C0BFBEBDBCBB6C
:10511000BAB9B8B7B6B5B4B3B2B1B0AFAEADACAB67
:10512000AAA9A8A8A7A6A5A4A3A3A2A1A09F9F9E41
:105130009D9C9C9B9A9999989797969595949393F3
:10514000929191908F8F8E8E8D8C8C8B8B8A89898A
:10515000888887878685858484838382828181800D
:105160000000FF070000F87F4FEA41034FEA535366
:10517000A3F58063D3F11E03C8BFD3F1210C0CDD6E
:105180004FF0004242EAC12242EA505232FA03FC96
:105190008CEAE17CACEBE1707047102BC4BF0020BF
:1051A000704703F5787CBCF1FF3F04D06FF00042FC
:1051B00082EA2100704770B500F002F9499224801C
:1051C00000207047F2E710F0004248BF4042B0FABA
:1051D00080F310FA03F10AD0C3F11D0303F58063D5
:1051E0004FEA415002EB035202EBD12170474FF0DE
:1051F0000000704751EA030C17D41CF5801F58BFFC
:10520000BCF5801F00F10680994218BF704708BFA7
:105210009042704707D711F5801F58BF13F5801FC4
:1052200019D499427047894270471CF5801F08D5F0
:10523000BCF5801FF7D58B4218BF704708BF82426C
:1052400070474FF4001C1CEB410F38BF1CEB430FA1
:1052500001D28B42704770B500F0B2F89224490039
:105260004FF000514FF08053FFF71ABEDFF848C1EE
:1052700070B51CEA111E1EBF1CEA13159EEA0C0F26
:1052800095EA0C0F00F06F8081EA030423EA4C13C7
:105290004EEAD47E21EA4C1141F4801143F480138C
:1052A000AE44A1FB024CA0FB0365AEF17F7E361934
:1052B00055EB0C05A1FB034C4CF10003A0FB021CB9
:1052C00016EB0C06654153F10003094218BF46F086
:1052D000010613F4007F0BD14FEA03314FEA05308A
:1052E000340341EA155140EA16506FF003020AE018
:1052F0004FEAC3214FEAC520F40241EA555140EA82
:1053000056506FF0020202EB2E4201EB025585EA85
:10531000CE710AD05FEA440C18BF24F0004450F16B
:10532000000041F1000120EAD47040F2FE7C6245A9
:1053300000D270BDA84214BF4FF080444FF04044EB
:10534000002E08BF0024BEF1806FA8BFA1F1C041AC
:10535000BDE8704080F282804FF0000001F1C04152
:1053600001F0004170479EEA0C0F0CEA131518BFBC
:1053700095EA0C0F06D04FF0000081EA030E0EF004
:10538000004170BD00F01CF88900013E00F007B834
:1053900000F009B84FEA430C5FEA5C5C08D081EA90
:1053A000030100F05BB84FEA410C5FEA5C5CF6D1A8
:1053B0004FF00000014970470000FF070000F87F30
:1053C0000EF1020E2EF0030E5EF8046B364205D489
:1053D000012A43EB030515F5001F12D8012841EB04
:1053E000010C1CF5001F0CD80ED14FEAD17C15F52D
:1053F000001F0CEB4C0C0CF1020C08BF4CEBD37CE7
:1054000004E04FF0080C01E04FEAD37C0CEB4C05B4
:1054100026FA05F606F00706B6F1040C06D20EEBE6
:10542000860CBDE870404CF0010C6047DFE80CF0E2
:10543000090B02024FF000414FF00000A1F50021DE
:1054400070BD19461046012851EB010418BFD4F570
:10545000001484BF002001F0004170BD0808A0F5D1
:1054600000114FEA3101704753EA010C17D41CF5C3
:10547000801F58BFBCF5801F00F106808B4218BF0B
:10548000704708BF8242704707D713F5801F58BF87
:1054900011F5801F19D48B4270479B4270471CF551
:1054A000801F08D5BCF5801FF7D5994218BF7047FB
:1054B00008BF904270474FF4001C1CEB430F38BFED
:1054C0001CEB410F01D2994270470FB40CBC03BCD6
:1054D000FFF7C1BE91EA030F10B581F000413FF51F
:1054E0003FAC83F0004300F009B8000010B591EA2A
:1054F000030F48BF83F000433FF532AC841A71EBD1
:10550000030C07D212198CF0004C43EB0C03001B68
:1055100061EB0C01DFF8A4E14FEA1154A4EB135C3A
:105520001EEA430F18BF9EEA445F00F0B08023EAF2
:105530006E03524221EA0451C3EB6E0338BF5B1E77
:10554000DCF1200E25D322FA0CFE10EB0E0043FAFC
:105550000CFE41EB0E01CCF1200E03FA0EFE10EB17
:105560000E0051F10001CCF1200E29D412FA0EF2F6
:1055700001EB0451BDE8104058BF7047401C1CBFF0
:10558000B2F1004F704700280CBF491C20F0010009
:10559000704712EB020E43EB030218BF4FF0010EEF
:1055A0004EEA4202ACF1200CDCF11E0E54D943FA53
:1055B0000CFE10EB0E0051F1FF31CCF11E0ED5D5D3
:1055C0000EF1010E12FA0EFE404141EB010101EB1A
:1055D000445C5FEA5C5C10D910EBDE7001EB0451B7
:1055E00038BFBEF1004FBDE8104018BF704700281B
:1055F0000CBF491C20F00100704730D24FEAD42C78
:1056000011F5001124F400641BD0B1FA81F20B3AB9
:10561000A41AA41ED2F12003914030FA03F31943D7
:10562000904001EBCC71002C01EB0451BDE810401F
:10563000A8BF704701F1C0414FF0000001F00041E8
:105640007047B0FA80F310FA03F100D110BDE41AEC
:10565000173C4805C90AE4E701EB045110BD4910A5
:1056600001EB0451BDE810404FEA300002E04FF07A
:10567000000170474A0008BF0042F8D0B2F5001F91
:1056800028BF704701F000414FF0000070479EEACC
:10569000445F07D011EA5E0FBDE8104004BF00214F
:1056A00000207047BDE8104070B5FFF789FE00BFCD
:1056B00040DFF63E83F00041104670470000E0FFF7
:1056C00043004FEAD30C4FEA3C0C43401FBF400756
:1056D0000CF1605113F0FE4F70471CF0006F03D1C6
:1056E00000200CF0004170470CF0004343EA50707A
:1056F00010B540EACC0000F028FA00BF000000928C
:105700004FEA0001FFF7AABE4FF000414FF0000042
:10571000A1F500217047000090EA010F48BF81F019
:10572000004100F16482421A3CBF801A89184FEA96
:10573000D0524FF07F4C1CEA410FA2EBD15318BF5F
:105740009CEA026F00F03B804FF0004C4CEA0020D6
:105750004CEA012121FA03FC10EB0C0C1ED202F1E1
:10576000FF325FEA1C2040EBC25038BF70471CF08C
:105770007F0F4FEA400C18BFBCF17F4F38BF704716
:10578000C3F12003994008BF20F00100BCF17F4F16
:1057900038BF7047A0F1C04000F01DBA4FEA3C008E
:1057A000000A40EBC25028BF1CF0FF0F4FEA400C2C
:1057B000E6D018BFBCF17F4F38BF7047EAE79CEADC
:1057C000026F05D010EA5C0F08BF00F00040704780
:1057D00010B500F0BAF900BF64FBBE3E401058BFE0
:1057E000C0F14040491058BFC1F140418142EFF340
:1057F000008070474FF47F0C1CEAD0121EBF1CEAD9
:10580000D11392EA0C0F93EA0C0F00F0858090EA16
:10581000010F48BF42F4807240F4000C41F40000D4
:105820002CF07F4120F07F4000B58142A2EB0302C3
:105830000FF2081CACEB504EC0F100009EF800E0E7
:105840004FEA4E0E00FB0EFC38BF49004FEA2C1CFD
:1058500002F5FA020CFB0EF34FEACE1E4FEA112CB2
:105860004FEAC1210EEB635E42EB22420EFB0CFCC1
:105870004FEA1C5300FB03114FEA112C4FEA013190
:105880000EFB0CFC4FEADC4C00FB0C11C14228BFA4
:1058900009184CEB03335DF804EB10EB410143EBCB
:1058A000C250B2F57C0F38BF704729D512F0F00F07
:1058B0001CBF00F1C04000F00040704700818283AF
:1058C0008485868788898B8C8D8E8F91929395960F
:1058D00097999A9C9D9FA0A2A3A5A7A8AAACAEB099
:1058E000B2B3B5B7B9BCBEC0C2C5C7C9CCCED1D49E
:1058F000D7D9DCDFE2E6E9ECF0F3F7FAFE000000CE
:105900004FEA400C0CF1807CBCF17E4F28BF704701
:10591000B0F1C04000F05FB990EA010F0CEAD1137A
:1059200048BF42F48072624538BF634507D213F422
:105930007F0F16D080EA010000F00040704710B5DC
:1059400000F003F9097EFC3E00F005B880EA010092
:1059500000F00040704780EA010000F0004000F0D5
:105960003AB912F47F0F04BF0248704780EA010081
:1059700000F031B90000C07FC10DD1F19E0206DBFD
:105980004FEA002343F0004323FA02F0704700423D
:1059900007D54FEA4001B1F1FE4F02D24FF00000AF
:1059A000704710B500F0D1F849922480002070476C
:1059B0006FEA200070470000B0FA80F310FA03F29B
:1059C000C3F19D030AD0D90501EB1220530638BF5D
:1059D000704700F1010008BF20F00100704700008F
:1059E00050EA010C00F113801CF5000F58BFBCF504
:1059F000000F01D48842704707D710F5000F58BF39
:105A000011F5000F15D488427047894270471CF584
:105A1000000F04D5BCF5000FF7D5814270474FF059
:105A2000807C1CEB400F38BF1CEB410F01D2814240
:105A3000704710B500F089F8922449004FF00050EB
:105A40004FF08051FFF7CABE4FF47F0C1CEAD01212
:105A50001EBF1CEAD11392EA0C0F93EA0C0F00F060
:105A6000478090EA010F48BF42F480724FF0004C2B
:105A70004CEA00204CEA012102EB0302A0FB0113D7
:105A8000A2F50002002918BF43F001035B0028BF04
:105A90004FEA330342EB22425FEA132C4CEBC25035
:105AA0002EBFBCEB436FB2F57C0F70474FEA036C1F
:105AB000BCF1004F08BF20F00100B2F57C0F38BFE9
:105AC00070470BD582F0FF0212F5803FC8BF7047C8
:105AD00000F1C040D8BF00F00040704700F5000C56
